:100000000C9462000C948A000C948A000C948E0468
:100010000C948E040C948E040C948A000C948A0028
:100020000C948A000C948A000C948A000C948A0028
:100030000C948A000C948A000C948A000C948A0018
:100040000C9444040C948A000C9412040C94EC0359
:100050000C948A000C948A000C948A000C948A00F8
:100060000C948A000C948A000000000024002700F1
:100070002A0000000000250028002B0000000000DE
:1000800023002600290004040404040404040202DA
:100090000202020203030303030301020408102007
:1000A0004080010204081020010204081020000012
:1000B0000008000201000003040700000000000027
:1000C0000000980411241FBECFEFD8E0DEBFCDBFE3
:1000D00022E0AEE8B1E001C01D92A339B207E1F71A
:1000E00011E0A0E0B1E0EEE6F0E102C005900D9273
:1000F000AE38B107D9F710E0C2E6D0E004C02197CE
:10010000FE010E942F08C136D107C9F70E94FA04E8
:100110000C9435080C940000EDE9F1E0A089B18958
:1001200082E08C93A485B5851C92A685B7858FEC5B
:100130008C93108EA489B58986E08C93A289B389AB
:100140008C9180618C93A289B3898C9188608C9307
:10015000A289B3898C9180688C930288F389E02D01
:1001600080818F7D80830895AF92BF92CF92DF927E
:10017000EF92FF920F931F93CF93DF936C017B015C
:100180008B01040F151FEB015E01AE18BF08C017ED
:10019000D10759F06991D601ED91FC910190F08160
:1001A000E02DC6010995892B79F7C501DF91CF9123
:1001B0001F910F91FF90EF90DF90CF90BF90AF9085
:1001C0000895FC01538D448D252F30E0842F90E05D
:1001D000821B930B541710F0CF9608950197089542
:1001E000FC01918D828D981761F0A28DAE0FBF2F0B
:1001F000B11D5D968C91928D9F5F9F73928F90E061
:1002000008958FEF9FEF0895FC01918D828D9817CF
:1002100031F0828DE80FF11D858D90E008958FEF0C
:100220009FEF0895FC01918D228D892F90E0805CD5
:100230009F4F821B91098F73992708958DE991E053
:100240000E94120121E0892B09F420E0822F0895F9
:1002500080E090E0892B29F00E941E0181110C940E
:1002600000000895FC01A48DA80FB92FB11DA35A59
:10027000BF4F2C91848D90E001968F739927848FC6
:10028000A689B7892C93A089B1898C9183708064E9
:100290008C93938D848D981306C00288F389E02D8A
:1002A00080818F7D80830895EF92FF920F931F933B
:1002B000CF93DF93EC0181E0888F9B8D8C8D981319
:1002C0001AC0E889F989808185FF15C09FB7F89425
:1002D000EE89FF896083E889F98980818370806471
:1002E00080839FBF81E090E0DF91CF911F910F91BC
:1002F000FF90EF900895F62E0B8D10E00F5F1F4FCB
:100300000F731127E02E8C8D8E110CC00FB607FCD9
:10031000FACFE889F989808185FFF5CFCE010E9467
:100320003201F1CFEB8DEC0FFD2FF11DE35AFF4FA2
:10033000F0829FB7F8940B8FEA89FB8980818062F5
:10034000CFCFCF93DF93EC01888D8823B9F0AA89B2
:10035000BB89E889F9898C9185FD03C0808186FD80
:100360000DC00FB607FCF7CF8C9185FFF2CF8081CF
:1003700085FFEDCFCE010E943201E9CFDF91CF9111
:100380000895833081F028F4813099F08230A9F00B
:1003900008958730A9F08830C9F08430B1F4809195
:1003A00080008F7D03C0809180008F7780938000D4
:1003B000089584B58F7784BD089584B58F7DFBCF74
:1003C0008091B0008F778093B00008958091B00045
:1003D0008F7DF9CF1F93CF93DF93282F30E0F90162
:1003E000E255FF4F8491F901E656FF4FD491F90190
:1003F000EA57FF4FC491CC23A9F0162F81110E9418
:10040000C101EC2FF0E0EE0FFF1FEE58FF4FA5915A
:10041000B4918FB7F894EC91111108C0D095DE23F8
:10042000DC938FBFDF91CF911F910895DE2BF8CF22
:10043000CF93DF9390E0FC01E656FF4F24918A575B
:100440009F4FFC0184918823D1F090E0880F991F81
:10045000FC01E859FF4FA591B491FC01EE58FF4F04
:10046000C591D49161110EC09FB7F8948C91E22F81
:10047000E0958E238C932881E223E8839FBFDF9150
:10048000CF9108958FB7F894EC91E22BEC938FBF46
:10049000F6CF3FB7F8948091950190919601A09185
:1004A0009701B091980126B5A89B05C02F3F19F080
:1004B0000196A11DB11D3FBFBA2FA92F982F8827E4
:1004C000BC01CD01620F711D811D911D42E0660FBF
:1004D000771F881F991F4A95D1F708958F929F9291
:1004E000AF92BF92CF92DF92EF92FF920E944902A9
:1004F0004B015C0188EEC82E83E0D82EE12CF12C54
:100500000E944902681979098A099B09683E73406B
:1005100081059105A8F321E0C21AD108E108F1088C
:1005200088EE880E83E0981EA11CB11CC114D10472
:10053000E104F10429F7FF90EF90DF90CF90BF9096
:10054000AF909F908F9008952FB7F894609191018C
:100550007091920180919301909194012FBF089521
:100560000F931F93CF93DF93D82F61E0809189027F
:100570000E94180210918A0200918902C8E06D2F32
:100580006170802F0E94EA01D69561E0812F0E9460
:10059000EA0160E0812F0E94EA01C15081F7DF91FA
:1005A000CF911F910F9108950F931F93CF93DF93D6
:1005B000182F062FC8E8D2E060E08A810E94EA0185
:1005C00061E088810E94EA01812F880F80680E9483
:1005D000B002802F0E94B00260E08881DF91CF914D
:1005E0001F910F910C94EA01FF920F931F93CF93E9
:1005F000DF9360E0809189020E94180200E0D0E061
:10060000C0E02091890230E0F901E255FF4F84916A
:10061000F901E656FF4FF490F901EA57FF4F1491A4
:10062000112369F181110E94C101E12FF0E0EE0F69
:10063000FF1FE458FF4FA591B491EC91FE2231E0E9
:1006400009F430E0832F0C2E01C0880F0A94EAF7DA
:10065000082B61E080918A020E94EA0160E08091AB
:100660008A020E94EA012196C830D10509F0C9CF5B
:10067000802FDF91CF911F910F91FF90089580E01F
:10068000E2CFFC0101900020E9F73197AF01481B50
:10069000590BBC018DE991E00C94B4008F929F92AC
:1006A000AF92BF920F931F93CF93DF93CDB7DEB777
:1006B000A1970FB6F894DEBF0FBECDBF19A242308E
:1006C00008F44AE08E010F5D1F4F842E912CB12C4F
:1006D000A12CA50194010E940D08E62FB901CA01C1
:1006E000EA30F4F4E05DD801EE938D01232B242B46
:1006F000252B79F790E080E0109719F0CD010E944A
:100700004103A1960FB6F894DEBF0FBECDBFDF91B7
:10071000CF911F910F91BF90AF909F908F900895B0
:10072000E95CE1CF682F70E090E080E04AE00C9453
:100730004E030C94410382E191E00C9441031F931A
:10074000CF93DF9300D000D0CDB7DEB78DE991E035
:100750000E94F0008DE991E00E94F00010E08A33E1
:1007600079F0E1E0F0E0EC0FFD1FE10FF11D17FD66
:10077000FA9580831F5F8DE991E00E94F000EFCF32
:10078000CE0101960E94E707182F8DE991E00E94A3
:10079000F0008053990B8230910520F4682F812F4F
:1007A0000E94EA018DE991E00E94F0008A3011F088
:1007B0008D30C1F78DE991E00E9404018A3021F467
:1007C0008DE991E00E94F0000F900F900F900F9034
:1007D000DF91CF911F9108951F920F920FB60F9244
:1007E00011242F933F934F935F936F937F938F9336
:1007F0009F93AF93BF93EF93FF938DE991E00E9496
:100800003201FF91EF91BF91AF919F918F917F91B5
:100810006F915F914F913F912F910F900FBE0F906D
:100820001F9018951F920F920FB60F9211242F93BD
:100830008F939F93EF93FF93E091AD01F091AE0101
:100840008081E091B301F091B40182FD1BC09081E1
:100850008091B6018F5F8F732091B701821741F0AD
:10086000E091B601F0E0E356FE4F958F8093B6011C
:10087000FF91EF919F918F912F910F900FBE0F904D
:100880001F9018958081F4CF1F920F920FB60F9290
:1008900011242F933F938F939F93AF93BF93809196
:1008A000910190919201A0919301B09194013091A6
:1008B000900123E0230F2D3758F50196A11DB11D9E
:1008C000209390018093910190939201A0939301C2
:1008D000B09394018091950190919601A091970118
:1008E000B09198010196A11DB11D8093950190933F
:1008F0009601A0939701B0939801BF91AF919F91FA
:100900008F913F912F910F900FBE0F901F901895D0
:1009100026E8230F0296A11DB11DD2CF1F920F9280
:100920000FB60F9211240F900FBE0F901F901895C5
:100930001F93CF93DF93EDE9F1E01382128288EEEB
:1009400093E0A0E0B0E084839583A683B78384E03E
:1009500091E09183808385EC90E09587848784EC97
:1009600090E09787868780EC90E0918B808B81EC7C
:1009700090E0938B828B82EC90E0958B848B86EC5D
:1009800090E0978B868B118E128E138E148EEAE375
:10099000F2E016821782108611861286138614865C
:1009A000158616861786108A118A128A138A148A67
:1009B000158AC8E8D2E082E0888383E0898315E065
:1009C0001A8361E082E00E94180261E08A810E943D
:1009D0001802E0E8F2E08AED97E09683858381E0F3
:1009E000848383831082118212821783DF91CF91D7
:1009F0001F910895789484B5826084BD84B5816028
:100A000084BD85B5826085BD85B5816085BD8091D9
:100A10006E00816080936E00109281008091810051
:100A20008260809381008091810081608093810049
:100A3000809180008160809380008091B10084600B
:100A40008093B1008091B00081608093B00080916C
:100A50007A00846080937A0080917A00826080932B
:100A60007A0080917A00816080937A0080917A0088
:100A7000806880937A001092C10010927C021092DC
:100A80007D0210927E0210927F0210923C02109220
:100A90003D0210923E0210923F020E94A4026B019E
:100AA0007C014B015C0128EB820E2BE0921EA11C05
:100AB000B11C0E94A4026C157D058E059F0528F0CF
:100AC00086169706A806B906A0F70E946E020E9435
:100AD0008C000E94A40260933C0270933D028093BC
:100AE0003E0290933F0285E191E00E9499030E94AB
:100AF000A4026B017C014B015C013AE0830E911C66
:100B0000A11CB11C0E94A4026C157D058E059F05D9
:100B100028F086169706A806B906A0F781E080930C
:100B200050020E94A40260933C0270933D028093A5
:100B30003E0290933F0286E291E00E9499030E9458
:100B40008C0060E080918A020E94EA0161E080915D
:100B500088020E94EA0181E80E94B0020E94F40229
:100B6000C82F60E0809188020E94EA016C2F6F77A5
:100B700080E00E94D40260E087E00E94D40264E03A
:100B800085E00E94D40263E182E00E94D40262E127
:100B900081E00E94D40260E080E00E94D40260E222
:100BA00086E00E94D40260E184E00E94D40262E206
:100BB00083E00E94D40203E912E0ECE03E2EC0E0A4
:100BC000D0E0F4EF4F2E55245394612C712C0E94E9
:100BD000A402672B682B692B09F4EAC00E94A402C7
:100BE000C0909901D0909A01E0909B01F0909C01F7
:100BF0006C157D058E059F0508F4D6C1C09099013E
:100C0000D0909A01E0909B01F0909C019B01AC0177
:100C10002C193D094E095F0969017A013AEFC316A3
:100C2000D104E104F10408F4CBC0609399017093FE
:100C30009A0180939B0190939C01409248025092AC
:100C4000490260924A0270924B0210924C0210923A
:100C50004D0210924E0210924F02809140029091EC
:100C60004102A0914202B0914302809344029093CA
:100C70004502A0934602B09347020E94A4026093EB
:100C800040027093410280934202909343028DE9A7
:100C900091E00E940401843611F40E949F030E9497
:100CA000A40260933C0270933D0280933E029093B5
:100CB0003F020E94A4026B017C018DE291E00E9440
:100CC000990381E00E94920384E391E00E949903DA
:100CD0004AE0C701B6010E944E0386E391E00E94FC
:100CE00099038091400290914102A0914202B091FB
:100CF0004302A7019601281B390B4A0B5B0BCA0163
:100D0000B9014AE00E944E0386E391E00E949903F4
:100D100060914002709141028091420290914302A1
:100D2000C0904402D0904502E0904602F090470205
:100D30006C197D098E099F094AE00E944E0388E3E1
:100D400091E00E9499030E94A4024AE00E944E038F
:100D50008AE391E00E9441030E949B030E94A40247
:100D60006B017C014B015C0132E0830E911CA11CE4
:100D7000B11C0E94A4026C157D058E059F0528F00C
:100D800086169706A806B906A0F78DE991E00E949D
:100D90000401843611F40E949F030E94A402609310
:100DA000400270934102809342029093430208C034
:100DB0000E94A402623071058105910508F00ECFF2
:100DC00060E080918A020E94EA0161E080918802DD
:100DD0000E94EA018FEB0E94B0027BE8E72E72E0EE
:100DE000F72E0E94F402F70181937F010E171F076F
:100DF000C1F760E0809188020E94EA0180918B0235
:100E0000982F929597702AE08F70382F929F300D0F
:100E1000112480918C02982F929597708F70482F93
:100E2000929F400D112460918D02862F90E0562FE5
:100E30005F7067FFC2C065FB882780F9389E500D40
:100E4000112420918E0290918F02609190028091E6
:100E50009102509380024093810230938202422F8C
:100E6000429547703AE02F70439F200D1124209344
:100E70008302292F229527709F70239F900D1124A4
:100E800090938402982F92959F708F70939F800DFE
:100E9000112490E08053984F9093860280938502AE
:100EA0006093870281E491E00E9499038091870218
:100EB000813021F489E491E00E94990380918702B6
:100EC000823021F480E591E00E94990380918702AD
:100ED000833021F488E591E00E9499038091870294
:100EE000843021F483E691E00E9499038091870287
:100EF000853021F48BE691E00E949903809187026E
:100F0000863021F484E791E00E9499038091870262
:100F1000873021F48CE791E00E949903809183024D
:100F20000E94920385E891E00E94990380918402D7
:100F30000E94920385E891E00E94990360918502E6
:100F40007091860290E080E04AE00E944E030E9489
:100F50009B0387E891E00E949903809180020E94A0
:100F6000920386E391E00E949903809181020E949E
:100F7000920386E391E00E949903809182020E948D
:100F800092030E949B030E949B030E949B030E946A
:100F90006E02209709F41BCE0E941E01882309F4DB
:100FA00016CE0E94000013CE6093990170939A01AF
:100FB00080939B0190939C0121CE64E09595879549
:100FC0006A95E1F78370829F500D11243ACFFC019E
:100FD00088279927E89421912032E9F3293010F0ED
:100FE0002E30C8F32B3241F02D3239F4689404C00E
:100FF0000E940508820F911D219120532A30C0F3D1
:101000001EF4909581959F4F08957AE0979F902DBB
:10101000879F802D910D11240895A1E21A2EAA1BFD
:10102000BB1BFD010DC0AA1FBB1FEE1FFF1FA21798
:10103000B307E407F50720F0A21BB30BE40BF50B95
:10104000661F771F881F991F1A9469F7609570951E
:10105000809590959B01AC01BD01CF010895EE0FE5
:0E106000FF1F0590F491E02D0994F894FFCF46
:10106E00000000005401B400E100A1011201F000E3
:10107E0004010D0A00564D4450565F317C315F56C7
:10108E004D4450560A00564D4450525F00564D4442
:10109E0050455F003A323A007C005F564D44504551
:1010AE000046656368613A20004C756E65732000DA
:1010BE004D617274657320004D696572636F6C6566
:1010CE007320004A75657665732000566965726EE9
:1010DE006573200053616261646F2000446F6D6917
:0E10EE006E676F20002D00486F72613A20007F
:107E0000112484B714BE81FFF0D085E080938100F7
:107E100082E08093C00088E18093C10086E0809377
:107E2000C20080E18093C4008EE0C9D0259A86E02C
:107E300020E33CEF91E0309385002093840096BBD3
:107E4000B09BFECF1D9AA8958150A9F7CC24DD24C4
:107E500088248394B5E0AB2EA1E19A2EF3E0BF2EE7
:107E6000A2D0813461F49FD0082FAFD0023811F036
:107E7000013811F484E001C083E08DD089C08234E0
:107E800011F484E103C0853419F485E0A6D080C0E4
:107E9000853579F488D0E82EFF2485D0082F10E0AE
:107EA000102F00270E291F29000F111F8ED06801E7
:107EB0006FC0863521F484E090D080E0DECF843638
:107EC00009F040C070D06FD0082F6DD080E0C81688
:107ED00080E7D80618F4F601B7BEE895C0E0D1E017
:107EE00062D089930C17E1F7F0E0CF16F0E7DF06D8
:107EF00018F0F601B7BEE89568D007B600FCFDCFD4
:107F0000A601A0E0B1E02C9130E011968C91119780
:107F100090E0982F8827822B932B1296FA010C0160
:107F200087BEE89511244E5F5F4FF1E0A038BF0790
:107F300051F7F601A7BEE89507B600FCFDCF97BE46
:107F4000E89526C08437B1F42ED02DD0F82E2BD052
:107F50003CD0F601EF2C8F010F5F1F4F84911BD097
:107F6000EA94F801C1F70894C11CD11CFA94CF0C13
:107F7000D11C0EC0853739F428D08EE10CD085E9AC
:107F80000AD08FE07ACF813511F488E018D01DD067
:107F900080E101D065CF982F8091C00085FFFCCF94
:107FA0009093C60008958091C00087FFFCCF809118
:107FB000C00084FD01C0A8958091C6000895E0E648
:107FC000F0E098E1908380830895EDDF803219F02E
:107FD00088E0F5DFFFCF84E1DECF1F93182FE3DFCA
:107FE0001150E9F7F2DF1F91089580E0E8DFEE27F6
:047FF000FF270994CA
:027FFE00040479
:0400000300007E007B
:00000001FF